:100000000C942A000C9447000C9447000C94470071
:100010000C9447000C9447000C9447000C94470044
:100020000C9447000C9447000C9447000C94470034
:100030000C9447000C9447000C9447000C94470024
:100040000C9447000C9447000C9447000C94470014
:100050000C94470011241FBECFE5D4E0DEBFCDBF16
:1000600011E0A0E6B0E0E4ECF2E202C005900D92EF
:10007000A238B107D9F711E0A2E8B1E001C01D92A2
:10008000AC39B107E1F70E94220F0C9460110C9477
:100090000000EF92FF920F931F937B018C0120E0F1
:1000A00030E040E05FE40E94F50388238CF0C80153
:1000B000B70120E030E040E05FE40E94C1010E940F
:1000C00055049B01AC01205030404040504806C0D0
:1000D000C801B7010E9455049B01AC01B901CA01D6
:1000E0001F910F91FF90EF900895A0E0B0E0EBE733
:1000F000F0E00C942911DC012B01FA019C91923063
:1001000008F439C1EB018881823008F433C194309E
:1001100069F4843009F02FC111969C91119789815F
:10012000981709F428C1A0E6B0E025C1843009F48D
:1001300021C18230A9F4923009F01DC19A01AD01AC
:1001400088E0EA010990AE01E90109929E0181501F
:10015000C1F7E201898111969C918923818308C1AD
:10016000923009F407C112962D903C901397EB0141
:100170008A819B811496AD90BD90CD90DC901797AD
:10018000EC80FD800E811F819101281B390BB90184
:1001900037FF04C066277727621B730B6032710537
:1001A0000CF061C0121613066CF537014801062EDB
:1001B00004C096948794779467940A94D2F721E0C8
:1001C00030E040E050E004C0220F331F441F551FB1
:1001D0006A95D2F721503040404050402E213F21B7
:1001E00040235123211531054105510521F021E01E
:1001F00030E040E050E079018A01E628F72808293C
:1002000019293CC0232BD1F1260E371E350146019A
:10021000062E04C096948794779467940A94D2F734
:1002200021E030E040E050E004C0220F331F441FC3
:10023000551F6A95D2F721503040404050402A2146
:100240003B214C215D21211531054105510521F04E
:1002500021E030E040E050E059016A01A628B728CB
:10026000C828D9280BC0821593052CF01C01AA249C
:10027000BB24650103C0EE24FF24870111969C91E5
:10028000D20111968C91981709F445C0992339F041
:10029000A80197012A193B094C095D0906C0A6016E
:1002A00095012E193F09400B510B57FD08C01182D3
:1002B0003382228224833583468357831DC081E0A5
:1002C00081833382228288279927DC01821B930B4A
:1002D000A40BB50B84839583A683B7830DC0220F2F
:1002E000331F441F551F24833583468357838281E0
:1002F000938101979383828324813581468157813D
:10030000DA01C9010197A109B1098F5F9F4FAF4F72
:10031000BF4328F30BC0918333822282EA0CFB1C7B
:100320000C1D1D1DE482F5820683178383E0808304
:10033000248135814681578157FF1AC0C901AA27F8
:1003400097FDA095BA2F81709070A070B0705695EF
:10035000479537952795822B932BA42BB52B848318
:100360009583A683B7838281938101969383828349
:10037000DF0101C0D201CD01CDB7DEB7E2E10C94BF
:100380004511A0E2B0E0E7ECF1E00C94351169838F
:100390007A838B839C832D833E834F835887E9E048
:1003A000EE2EF12CEC0EFD1ECE010196B7010E943F
:1003B00046068E010F5E1F4FCE010596B8010E94C2
:1003C00046068A8991E089278A8BC701B801AE0168
:1003D000475E5F4F0E9475000E947105A096E6E09F
:1003E0000C945111A0E2B0E0E8EFF1E00C9435116B
:1003F00069837A838B839C832D833E834F835887C5
:10040000F9E0EF2EF12CEC0EFD1ECE010196B701A6
:100410000E9446068E010F5E1F4FCE010596B80161
:100420000E944606C701B801AE01475E5F4F0E94B9
:1004300075000E947105A096E6E00C945111A0E2AF
:10044000B0E0E5E2F2E00C94291169837A838B83B2
:100450009C832D833E834F835887CE010196BE0136
:10046000675F7F4F0E944606CE010596BE016F5E14
:100470007F4F0E9446069985923088F089898230A4
:10048000C8F0943019F4823051F404C0843029F457
:10049000923081F480E690E0C6C0923049F420E0CA
:1004A0009A858A89981321E02A87CE010996BBC0D4
:1004B000823049F420E09A858A89981321E02A8BBA
:1004C000CE014196B0C02D843E844F8458886D88FB
:1004D0007E888F88988CEE24FF248701AA24BB2471
:1004E000650140E050E060E070E0E0E0F0E0C10174
:1004F00081709070892BE9F0E60CF71C081D191D1E
:100500009A01AB012A0D3B1D4C1D5D1D80E090E062
:10051000A0E0B0E0E614F7040805190520F481E036
:1005200090E0A0E0B0E0BA01A901480F591F6A1F8E
:100530007B1FAA0CBB1CCC1CDD1C97FE08C081E0F5
:1005400090E0A0E0B0E0A82AB92ACA2ADB2A3196B6
:10055000E032F10549F0660C771C881C991C569412
:10056000479437942794C3CFFA85EA892B893C892D
:100570008B859C85280F391F2E5F3F4F17C0CA01FE
:1005800081709070892B61F016950795F794E79428
:1005900080E090E0A0E0B0E8E82AF92A0A2B1B2BC3
:1005A00076956795579547952F5F3F4F77FDE7CF36
:1005B0000CC0440F551F661F771F17FD4160EE0CDE
:1005C000FF1C001F111F21503040403090E05907A0
:1005D00090E0690790E4790760F32B8F3C8FDB0193
:1005E000CA018F779070A070B07080349105A1051A
:1005F000B10561F447FD0AC0E114F10401051105DC
:1006000029F0405C5F4F6F4F7F4F40781A8EFE1786
:1006100011F081E08A8F4D8F5E8F6F8F78A383E01A
:10062000898FCE0149960E947105A096E2E10C9453
:100630004511A8E1B0E0EFE1F3E00C9431116983DA
:100640007A838B839C832D833E834F835887B9E0C5
:10065000EB2EF12CEC0EFD1ECE010196B7010E948F
:1006600046068E010F5E1F4FCE010596B8010E940F
:1006700046062985223008F47EC03989323010F4CC
:10068000B8017CC08A859A8989278A87243011F02D
:10069000223031F4231709F06EC060E670E06EC0BE
:1006A000343039F41D861E861F86188A1C861B86E8
:1006B00004C0323021F484E08987B7015FC02B8504
:1006C0003C858B899C89281B390B3C872B87ED84C3
:1006D000FE840F851889AD88BE88CF88D88CEA142F
:1006E000FB040C051D0540F4EE0CFF1C001F111F40
:1006F000215030403C872B8720E030E040E050E044
:1007000080E090E0A0E0B0E460E070E0EA14FB0478
:100710000C051D0540F0282B392B4A2B5B2BEA18C2
:10072000FB080C091D09B695A79597958795EE0CC2
:10073000FF1C001F111F6F5F7F4F6F31710531F775
:10074000DA01C9018F779070A070B0708034910584
:10075000A105B10561F427FD0AC0E114F10401050A
:10076000110529F0205C3F4F4F4F5F4F20782D87B8
:100770003E874F87588BBE01675F7F4FCB010E943A
:1007800071056896EAE00C944D11A8E1B0E0EBEC3D
:10079000F3E00C94351169837A838B839C832D83DA
:1007A0003E834F83588789E0E82EF12CEC0EFD1E26
:1007B000CE010196B7010E9446068E010F5E1F4FC3
:1007C000CE010596B8010E9446068985823040F028
:1007D0008989823028F0C701B8010E94BE0601C095
:1007E0008FEF6896E6E00C945111A8E1B0E0EBEFD2
:1007F000F3E00C94351169837A838B839C832D837A
:100800003E834F83588789E0E82EF12CEC0EFD1EC5
:10081000CE010196B7010E9446068E010F5E1F4F62
:10082000CE010596B8010E9446068985823040F0C7
:100830008989823028F0C701B8010E94BE0601C034
:100840008FEF6896E6E00C945111A8E1B0E0EBE27E
:10085000F4E00C94351169837A838B839C832D8318
:100860003E834F83588789E0E82EF12CEC0EFD1E65
:10087000CE010196B7010E9446068E010F5E1F4F02
:10088000CE010596B8010E9446068985823040F067
:100890008989823028F0C701B8010E94BE0601C0D4
:1008A00081E06896E6E00C945111ACE0B0E0EBE535
:1008B000F4E00C94391169837A838B839C83CE0195
:1008C0000196BE016B5F7F4F0E9446068D8182308C
:1008D00061F1823050F1843021F48E81882351F10E
:1008E0002EC02F81388537FD20C06E812F31310514
:1008F0001CF06623F9F023C08EE190E0821B930B7D
:1009000029853A854B855C8504C056954795379572
:1009100027958A95D2F76623B1F05095409530958A
:1009200021953F4F4F4F5F4F0EC020E030E040E039
:1009300050E009C02FEF3FEF4FEF5FE704C020E02A
:1009400030E040E050E8B901CA012C96E2E00C9496
:100950005511A8E0B0E0EFEAF4E00C9431117B010E
:100960008C01611571058105910519F482E0898377
:1009700060C083E089838EE1C82ED12CDC82CB82DB
:10098000ED82FE820F831887C801B7010E942205FD
:10099000FC013197F7FF3BC0222733272E1B3F0B6B
:1009A00057016801022E04C0D694C794B794A79447
:1009B0000A94D2F740E050E060E070E081E090E01F
:1009C000A0E0B0E004C0880F991FAA1FBB1F2A95A2
:1009D000D2F70197A109B1098E219F21A023B1234C
:1009E0000097A105B10521F041E050E060E070E022
:1009F0004A295B296C297D294D835E836F83788723
:100A00008EE190E08E1B9F0B9C838B8312C03097EE
:100A100081F00E2E04C0EE0CFF1C001F111F0A9463
:100A2000D2F7ED82FE820F831887CE1ADF0ADC82AE
:100A3000CB821A82CE0101960E9471052896EAE0C7
:100A40000C944D11EF92FF920F931F937B018C0139
:100A500080E0E81680E0F80681E0080780E01807EB
:100A600088F48FEFE816F1040105110531F028F044
:100A700088E090E0A0E0B0E017C080E090E0A0E067
:100A8000B0E012C080E0E81680E0F80680E00807D9
:100A900081E0180728F088E190E0A0E0B0E004C011
:100AA00080E190E0A0E0B0E020E230E040E050E003
:100AB000281B390B4A0B5B0B04C016950795F7945E
:100AC000E7948A95D2F7F701E859FF4F8081281BF8
:100AD000310941095109C9011F910F91FF90EF9010
:100AE0000895DF92EF92FF920F931F93FC01E48031
:100AF000F58006811781D1808081823048F480E0C2
:100B000090E0A0E1B0E0E82AF92A0A2B1B2BA5C04F
:100B1000843009F49FC0823021F4EE24FF24870141
:100B200005C0E114F1040105110519F4E0E0F0E05D
:100B300096C0628173819FEF623879070CF05BC0C9
:100B400022E83FEF261B370B2A3131052CF020E03D
:100B500030E040E050E02AC0B801A701022E04C0F6
:100B600076956795579547950A94D2F781E090E07E
:100B7000A0E0B0E004C0880F991FAA1FBB1F2A95F0
:100B8000D2F70197A109B1098E219F21A023B1239A
:100B90000097A105B10521F081E090E0A0E0B0E070
:100BA0009A01AB01282B392B4A2B5B2BDA01C901A7
:100BB0008F779070A070B07080349105A105B10559
:100BC00039F427FF09C0205C3F4F4F4F5F4F04C0EF
:100BD000215C3F4F4F4F5F4FE0E0F0E02030A0E05E
:100BE0003A07A0E04A07A0E45A0710F0E1E0F0E07D
:100BF00079018A0127C06038710564F5FB01E1586D
:100C0000FF4FD801C7018F779070A070B07080340B
:100C10009105A105B10539F4E7FE0DC080E490E02F
:100C2000A0E0B0E004C08FE390E0A0E0B0E0E80E08
:100C3000F91E0A1F1B1F17FF05C016950795F7948D
:100C4000E794319687E016950795F794E7948A958F
:100C5000D1F705C0EE24FF248701EFEFF0E06E2FFF
:100C6000679566276795902F9F77D794DD24D79453
:100C70008E2F8695492F462B582F5D29B701CA0123
:100C80001F910F91FF90EF90DF900895FC01DB0121
:100C9000408151812281622F6F7770E0221F2227CD
:100CA000221F9381892F880F822B282F30E0991FD4
:100CB0009927991F11969C93119721153105A9F534
:100CC000411551056105710511F482E037C082E8D4
:100CD0009FEF13969C938E9312979A01AB0167E056
:100CE000220F331F441F551F6A95D1F783E08C9361
:100CF0000DC0220F331F441F551F12968D919C91DA
:100D00001397019713969C938E931297203080E04F
:100D1000380780E0480780E4580758F314962D936D
:100D20003D934D935C93179708952F3F310579F4C8
:100D3000411551056105710519F484E08C930895FE
:100D400064FF03C081E08C9312C01C9210C02F5727
:100D5000304013963C932E93129783E08C9387E058
:100D6000440F551F661F771F8A95D1F7706414963C
:100D70004D935D936D937C93179708951F93DC01BA
:100D8000FB019C91923008F447C08081823008F4C6
:100D900043C0943051F411961C91843099F58181AF
:100DA000682F70E0611B71093FC0843021F09230E0
:100DB00031F48230B9F18181882389F12DC01196F7
:100DC0001C9111978230F1F081811817D9F4129695
:100DD0002D913C911397828193818217930794F010
:100DE00028173907BCF014968D919D910D90BC91F8
:100DF000A02D2481358146815781281739074A075C
:100E00005B0718F4112341F00AC082179307A40767
:100E1000B50740F4112319F061E070E005C06FEFF1
:100E20007FEF02C060E070E0CB011F910895DF9377
:100E3000CF93CDB7DEB780E390E0909383018093AA
:100E4000820180E390E0909385018093840180E3A8
:100E500090E0909387018093860180E390E09093E7
:100E600089018093880187E390E090938B018093C0
:100E70008A0187E390E090938D0180938C0187E352
:100E800090E090938F0180938E0187E390E09093A0
:100E9000910180939001A1E3B0E0E1E3F0E0808173
:100EA0008E7F8C93A1E3B0E0E1E3F0E080818D7F61
:100EB0008C93A1E3B0E0E1E3F0E080818B7F8C9341
:100EC000A1E3B0E0E1E3F0E08081877F8C93A2E3CF
:100ED000B0E0E2E3F0E0808181608C93A2E3B0E0D7
:100EE000E2E3F0E0808182608C93A2E3B0E0E2E391
:100EF000F0E0808184608C93A2E3B0E0E2E3F0E074
:100F0000808188608C93A7E3B0E0E7E3F0E0808124
:100F1000877F8C93A7E3B0E0E7E3F0E080818B7FED
:100F20008C93A7E3B0E0E7E3F0E080818D7F8C93C2
:100F3000A7E3B0E0E7E3F0E080818E7F8C93A8E345
:100F4000B0E0E8E3F0E08081877F8C93A8E3B0E035
:100F5000E8E3F0E080818B7F8C93A8E3B0E0E8E3E6
:100F6000F0E080818D7F8C93A8E3B0E0E8E3F0E0CF
:100F700080818E7F8C93CF91DF910895DF93CF9303
:100F8000CDB7DEB760970FB6F894DEBF0FBECDBF0A
:100F9000188A1F86188AB2C18889882F90E0880F26
:100FA000991FFC01E657FE4FA081B1818889882FE7
:100FB00090E0880F991FFC01E657FE4F0190F081E9
:100FC000E02D8081482F8889882F90E0FC01E4592A
:100FD000FE4F8081282F30E081E090E0022E02C099
:100FE000880F991F0A94E2F7842B8C931F8654C1B3
:100FF0008F85882F90E0880F991FFC01EE57FE4FD8
:101000000190F081E02D8081482F50E08F85882F5E
:1010100090E0FC01E859FE4F8081282F30E081E00C
:1010200090E002C0880F991F2A95E2F79A012823C1
:1010300039238F85882F90E0FC01E859FE4F80818D
:10104000882F90E0A90102C0559547958A95E2F74F
:10105000CA01009709F01DC180E090E0A0EFB1E463
:101060008B879C87AD87BE876B857C858D859E85AC
:1010700020E030E04AE753E40E941F02DC01CB018C
:101080008F839887A987BA876F81788589859A85A4
:1010900020E030E040E85FE30E94250488232CF440
:1010A00081E090E09E838D833FC06F817885898544
:1010B0009A8520E03FEF4FE757E40E94C5031816DA
:1010C0004CF56B857C858D859E8520E030E040E287
:1010D00051E40E941F02DC01CB01BC01CD010E9442
:1010E0004900DC01CB019E838D830FC089E190E034
:1010F0009C838B838B819C810197F1F79C838B83ED
:101100008D819E8101979E838D838D819E81009725
:1011100069F714C06F81788589859A850E94490096
:10112000DC01CB019E838D838D819E819A8389838F
:1011300089819A810197F1F79A8389838F85882F16
:1011400090E0880F991FFC01EE57FE4F0190F0814F
:10115000E02D8081482F50E08F85882F90E0FC01A2
:10116000E859FE4F8081282F30E081E090E002C0F6
:10117000880F991F2A95E2F79A01282339238F8532
:10118000882F90E0FC01E859FE4F8081882F90E085
:10119000A90102C0559547958A95E2F7CA010097C3
:1011A00009F077C08F85882F90E0880F991FFC0188
:1011B000EE57FE4F0190F081E02D8081482F50E0E6
:1011C0008F85882F90E0FC01E859FE4F8081282F01
:1011D00030E081E090E002C0880F991F2A95E2F785
:1011E0009A01282339238F85882F90E0FC01E85944
:1011F000FE4F8081882F90E0A90102C05595479548
:101200008A95E2F7CA01009769F28889882F90E0F1
:10121000880F991FFC01E657FE4FA081B181888994
:10122000882F90E0880F991FFC01E657FE4F019030
:10123000F081E02D8081482F8889882F90E0FC0183
:10124000E459FE4F8081282F30E081E090E002C019
:10125000880F991F2A95E2F7809584238C938F85B8
:10126000482F50E08889282F30E0CA01880F991F45
:10127000880F991F820F931FFC01E059FE4F808158
:1012800060960FB6F894DEBF0FBECDBFCF91DF9151
:1012900008958F858F5F8F878F85843008F4A8CE5F
:1012A0008889882F90E0880F991FFC01E657FE4F30
:1012B000A081B1818889882F90E0880F991FFC0157
:1012C000E657FE4F0190F081E02D8081482F8889FC
:1012D000882F90E0FC01E459FE4F8081282F30E0F8
:1012E00081E090E0022E02C0880F991F0A94E2F775
:1012F000809584238C9388898F5F888B888984303C
:1013000008F44ACE47CEDF93CF9300D000D0CDB7BC
:10131000DEB70E94BE0789838981282F30E03C8395
:101320002B838B819C818433910509F44BC02B81E5
:101330003C8125333105DCF48B819C81813391051F
:10134000C1F12B813C812233310534F48B819C81A6
:101350008033910561F148C02B813C8122333105F6
:1013600059F18B819C818333910549F13DC02B81DB
:101370003C812733310579F18B819C81883391053C
:101380005CF42B813C8125333105F9F08B819C8104
:1013900086339105E9F028C02B813C812833310543
:1013A000E9F08B819C8189339105D9F01DC01A82A7
:1013B0001DC091E09A831AC022E02A8317C033E04F
:1013C0003A8314C084E08A8311C095E09A830EC0EA
:1013D00026E02A830BC037E03A8308C088E08A837E
:1013E00005C099E09A8302C029812A838A810F90DF
:1013F0000F900F900F90CF91DF910895DF93CF93CF
:10140000CDB7DEB7AAE3B0E0EAE3F0E08081826026
:101410008C93AAE3B0E0EAE3F0E0808181608C93F2
:10142000AAE3B0E0EAE3F0E0808184608C93ABE370
:10143000B0E0EBE3F0E080818D7F8C93ABE3B0E034
:10144000EBE3F0E080818E7F8C93ABE3B0E0EBE3E5
:10145000F0E080818B7F8C93E4E3F0E08FEF80837A
:10146000E5E3F0E0108288E30E943F0A8CE00E94EE
:101470003F0A81E00E943F0ACF91DF910895DF93F8
:10148000CF93CDB7DEB7E9970FB6F894DEBF0FBEA6
:10149000CDBF89AFABE3B0E0EBE3F0E080818E7FBE
:1014A0008C9380E090E0A0E8BFE38DAB9EABAFAB48
:1014B000B8AF6DA97EA98FA998AD20E030E04AE7CA
:1014C00053E40E941F02DC01CB0189AB9AABABABAA
:1014D000BCAB69A97AA98BA99CA920E030E040E8BF
:1014E0005FE30E94250488232CF481E090E098AB10
:1014F0008FA73FC069A97AA98BA99CA920E03FEFDB
:101500004FE757E40E94C50318164CF56DA97EA954
:101510008FA998AD20E030E040E251E40E941F0224
:10152000DC01CB01BC01CD010E944900DC01CB01F3
:1015300098AB8FA70FC089E190E09EA78DA78DA5DE
:101540009EA50197F1F79EA78DA78FA598A9019752
:1015500098AB8FA78FA598A9009769F714C069A9C0
:101560007AA98BA99CA90E944900DC01CB0198AB08
:101570008FA78FA598A99CA78BA78BA59CA5019742
:10158000F1F79CA78BA7ABE3B0E0EBE3F0E0808141
:1015900084608C9380E090E0A0E8BFE38FA398A7DD
:1015A000A9A7BAA76FA178A589A59AA520E030E0E0
:1015B0004AE753E40E941F02DC01CB018BA39CA3EA
:1015C000ADA3BEA36BA17CA18DA19EA120E030E0C4
:1015D00040E85FE30E94250488232CF481E090E03A
:1015E0009AA389A33FC06BA17CA18DA19EA120E0FD
:1015F0003FEF4FE757E40E94C50318164CF56FA163
:1016000078A589A59AA520E030E040E251E40E9447
:101610001F02DC01CB01BC01CD010E944900DC01AD
:10162000CB019AA389A30FC089E190E098A38F8F83
:101630008F8D98A10197F1F798A38F8F89A19AA117
:1016400001979AA389A389A19AA1009769F714C069
:101650006BA17CA18DA19EA10E944900DC01CB0160
:101660009AA389A389A19AA19E8F8D8F8D8D9E8D1E
:101670000197F1F79E8F8D8FE5E3F0E089AD8083D0
:1016800080E090E0A0E8BFE3898F9A8FAB8FBC8F9A
:10169000698D7A8D8B8D9C8D20E030E04AE753E494
:1016A0000E941F02DC01CB018D8B9E8BAF8BB88F0C
:1016B0006D897E898F89988D20E030E040E85FE376
:1016C0000E94250488232CF481E090E09C8B8B8B76
:1016D0003FC06D897E898F89988D20E03FEF4FE76D
:1016E00057E40E94C50318164CF5698D7A8D8B8DD1
:1016F0009C8D20E030E040E251E40E941F02DC01BA
:10170000CB01BC01CD010E944900DC01CB019C8BC7
:101710008B8B0FC089E190E09A8B898B89899A899C
:101720000197F1F79A8B898B8B899C8901979C8B08
:101730008B8B8B899C89009769F714C06D897E8992
:101740008F89988D0E944900DC01CB019C8B8B8B8B
:101750008B899C89988B8F878F8598890197F1F762
:10176000988B8F87ABE3B0E0EBE3F0E080818B7F79
:101770008C9380E090E0A0E8BFE38B879C87AD87E7
:10178000BE876B857C858D859E8520E030E04AE7AD
:1017900053E40E941F02DC01CB018F839887A98745
:1017A000BA876F81788589859A8520E030E040E8A6
:1017B0005FE30E94250488232CF481E090E09E835F
:1017C0008D833FC06F81788589859A8520E03FEFC2
:1017D0004FE757E40E94C50318164CF56B857C85CE
:1017E0008D859E8520E030E040E251E40E941F029A
:1017F000DC01CB01BC01CD010E944900DC01CB0121
:101800009E838D830FC089E190E09C838B838B81C5
:101810009C810197F1F79C838B838D819E81019739
:101820009E838D838D819E81009769F714C06F819F
:10183000788589859A850E944900DC01CB019E83C9
:101840008D838D819E819A83898389819A81019775
:10185000F1F79A838983ABE3B0E0EBE3F0E08081BA
:101860008E7F8C93E5E3F0E01082E9960FB6F89452
:10187000DEBF0FBECDBFCF91DF910895DF93CF9331
:10188000CDB7DEB7E9970FB6F894DEBF0FBECDBF78
:1018900089AFABE3B0E0EBE3F0E0808181608C9353
:1018A00080E090E0A0E8BFE38DAB9EABAFABB8AFFC
:1018B0006DA97EA98FA998AD20E030E04AE753E4F6
:1018C0000E941F02DC01CB0189AB9AABABABBCAB76
:1018D00069A97AA98BA99CA920E030E040E85FE3E0
:1018E0000E94250488232CF481E090E098AB8FA718
:1018F0003FC069A97AA98BA99CA920E03FEF4FE7D7
:1019000057E40E94C50318164CF56DA97EA98FA94E
:1019100098AD20E030E040E251E40E941F02DC017B
:10192000CB01BC01CD010E944900DC01CB0198AB89
:101930008FA70FC089E190E09EA78DA78DA59EA5DA
:101940000197F1F79EA78DA78FA598A9019798AB4E
:101950008FA78FA598A9009769F714C069A97AA9DC
:101960008BA99CA90E944900DC01CB0198AB8FA7F1
:101970008FA598A99CA78BA78BA59CA50197F1F78C
:101980009CA78BA7ABE3B0E0EBE3F0E08081846041
:101990008C9380E090E0A0E8BFE38FA398A7A9A76D
:1019A000BAA76FA178A589A59AA520E030E04AE7FB
:1019B00053E40E941F02DC01CB018BA39CA3ADA3C7
:1019C000BEA36BA17CA18DA19EA120E030E040E8E8
:1019D0005FE30E94250488232CF481E090E09AA321
:1019E00089A33FC06BA17CA18DA19EA120E03FEF08
:1019F0004FE757E40E94C50318164CF56FA178A570
:101A000089A59AA520E030E040E251E40E941F023F
:101A1000DC01CB01BC01CD010E944900DC01CB01FE
:101A20009AA389A30FC089E190E098A38F8F8F8D2F
:101A300098A10197F1F798A38F8F89A19AA1019797
:101A40009AA389A389A19AA1009769F714C06BA1F1
:101A50007CA18DA19EA10E944900DC01CB019AA32B
:101A600089A389A19AA19E8F8D8F8D8D9E8D0197BF
:101A7000F1F79E8F8D8FE5E3F0E089AD808380E004
:101A800090E0A0E8BFE3898F9A8FAB8FBC8F698D00
:101A90007A8D8B8D9C8D20E030E04AE753E40E94E4
:101AA0001F02DC01CB018D8B9E8BAF8BB88F6D89B4
:101AB0007E898F89988D20E030E040E85FE30E94C6
:101AC000250488232CF481E090E09C8B8B8B3FC015
:101AD0006D897E898F89988D20E03FEF4FE757E42D
:101AE0000E94C50318164CF5698D7A8D8B8D9C8DDF
:101AF00020E030E040E251E40E941F02DC01CB0113
:101B0000BC01CD010E944900DC01CB019C8B8B8B79
:101B10000FC089E190E09A8B898B89899A89019716
:101B2000F1F79A8B898B8B899C8901979C8B8B8B86
:101B30008B899C89009769F714C06D897E898F898C
:101B4000988D0E944900DC01CB019C8B8B8B8B898B
:101B50009C89988B8F878F8598890197F1F7988B4F
:101B60008F87ABE3B0E0EBE3F0E080818B7F8C9379
:101B700080E090E0A0E8BFE38B879C87AD87BE87BD
:101B80006B857C858D859E8520E030E04AE753E4B7
:101B90000E941F02DC01CB018F839887A987BA8737
:101BA0006F81788589859A8520E030E040E85FE3A1
:101BB0000E94250488232CF481E090E09E838D838D
:101BC0003FC06F81788589859A8520E03FEF4FE798
:101BD00057E40E94C50318164CF56B857C858D85EE
:101BE0009E8520E030E040E251E40E941F02DC01CB
:101BF000CB01BC01CD010E944900DC01CB019E83D9
:101C00008D830FC089E190E09C838B838B819C81C5
:101C10000197F1F79C838B838D819E8101979E8331
:101C20008D838D819E81009769F714C06F817885BF
:101C300089859A850E944900DC01CB019E838D83B2
:101C40008D819E819A83898389819A810197F1F799
:101C50009A838983ABE3B0E0EBE3F0E080818E7F91
:101C60008C93E5E3F0E01082E9960FB6F894DEBFBE
:101C70000FBECDBFCF91DF910895DF93CF9300D0FA
:101C8000CDB7DEB79A8389830AC0E981FA81808162
:101C90000E943E0C89819A8101969A838983E98109
:101CA000FA818081882389F70F900F90CF91DF917F
:101CB00008950F931F93DF93CF93CDB7DEB7A69709
:101CC0000FB6F894DEBF0FBECDBF6BA37CA38DA370
:101CD0009EA31A82198280E2FE013396DF01982FBB
:101CE0001D929A95E9F709811A818BA19CA1ADA15A
:101CF000BEA12AE030E040E050E0BC01CD010E94EE
:101D00000711DC01CB01AC019801220F331FCE017A
:101D10000196820F931FFC013296518340838BA161
:101D20009CA1ADA1BEA12AE030E040E050E0BC01A2
:101D3000CD010E940711DA01C9018BA39CA3ADA3B9
:101D4000BEA389819A8101969A8389838BA19CA1E4
:101D5000ADA1BEA10097A105B10529F616C08981E4
:101D60009A8101979C01220F331FCE010196820FA9
:101D7000931FFC01329680819181805D0E943E0C10
:101D800089819A8101979A83898389819A810097B1
:101D900031F7A6960FB6F894DEBF0FBECDBFCF9138
:101DA000DF911F910F910895DF93CF93CDB7DEB7E9
:101DB00028970FB6F894DEBF0FBECDBF6D837E832C
:101DC0008F8398876D817E818F81988520E030E0B8
:101DD0004AE754E40E941F02DC01CB01BC01CD01A3
:101DE0000E944900DC01CB0128EE33E040E050E0E6
:101DF000BC01CD010E940711DC01CB0189839A83CC
:101E0000AB83BC836D817E818F8198850E94490060
:101E1000DC01CB01BC01CD010E94590E8EE20E9473
:101E20003E0C89819A81AB81BC81BC01CD010E94AD
:101E3000590E28960FB6F894DEBF0FBECDBFCF91D6
:101E4000DF910895CF92DF92EF92FF920F931F934D
:101E5000DF93CF93CDB7DEB70E9417070E94FE092C
:101E60000E9483098093940180919701882329F02F
:101E700081E00E943F0A10929701809194018B3477
:101E800041F40E94221081E00E943F0A10929701C3
:101E9000E7CF809194018A3008F047C08091940187
:101EA000882F90E0A0E0B0E0BC01CD010E94590E67
:101EB000809195018823C9F48091980190919901AE
:101EC0009C01220F331FC901880F991F880F991F8A
:101ED000280F391F80919401882F90E0820F931F63
:101EE00090939901809398011CC08091950188235B
:101EF000C1F080919A0190919B019C01220F331FA8
:101F0000C901880F991F880F991F280F391F8091C9
:101F10009401882F90E0820F931F90939B018093F0
:101F20009A0181E0809396019BCF8091960188234E
:101F300009F496CF809194018D3309F044C080EC70
:101F40000E943F0A8DE30E943E0C809195018823F8
:101F500049F1C0909201D0909301809198019091A5
:101F60009901CC01A0E0B0E0BC01CD010E94A90420
:101F70007B018C0180919A0190919B01CC01A0E0A2
:101F8000B0E0BC01CD010E94A9049B01AC01C801D5
:101F9000B701F6010995DC01CB01BC01CD010E941E
:101FA000D40E0BC08091980190919901CC01A0E0D2
:101FB000B0E0BC01CD010E94590E0E94221081E0C8
:101FC000809397014DCF80919501882309F048CFE8
:101FD00081E090E0909381018093800181E0809383
:101FE0009501809194010E943E0C809194018B3266
:101FF00039F48BE390E1909393018093920130CF79
:10200000809194018D3239F484E690E190939301AC
:102010008093920125CF809194018A3239F485EB27
:1020200090E190939301809392011ACF8091940153
:102030008F3209F015CF8EED90E19093930180934C
:1020400092010ECFDF93CF93CDB7DEB710929501FB
:1020500010929601109299011092980110929B0192
:1020600010929A0181E090E0909381018093800129
:10207000CF91DF910895DF93CF93CDB7DEB7289747
:102080000FB6F894DEBF0FBECDBF69837A838B8312
:102090009C832D833E834F83588769817A818B810E
:1020A0009C812D813E814F8158850E94F201DC0187
:1020B000CB01BC01CD0128960FB6F894DEBF0FBE50
:1020C000CDBFCF91DF910895DF93CF93CDB7DEB72A
:1020D0002C970FB6F894DEBF0FBECDBF69837A830D
:1020E0008B839C832D833E834F83588769817A81BC
:1020F0008B819C812D813E814F8158850E942504D2
:102100008823A4F48DE20E943E0C6D817E818F8134
:10211000988529813A814B815C810E94C101DC0153
:10212000CB0189879A87AB87BC8710C069817A8188
:102130008B819C812D813E814F8158850E94C101F8
:10214000DC01CB0189879A87AB87BC8789859A8513
:10215000AB85BC85BC01CD012C960FB6F894DEBFD3
:102160000FBECDBFCF91DF910895DF93CF93CDB751
:10217000DEB728970FB6F894DEBF0FBECDBF6983D8
:102180007A838B839C832D833E834F835887698119
:102190007A818B819C812D813E814F8158850E945F
:1021A0001F02DC01CB01BC01CD0128960FB6F894CB
:1021B000DEBF0FBECDBFCF91DF910895DF93CF93E8
:1021C000CDB7DEB728970FB6F894DEBF0FBECDBFF0
:1021D00069837A838B839C832D833E834F835887C7
:1021E00069817A818B819C812D813E814F815885C7
:1021F0000E941903DC01CB01BC01CD0128960FB66A
:10220000F894DEBF0FBECDBFCF91DF910895A1E25C
:102210001A2EAA1BBB1BFD010DC0AA1FBB1FEE1F60
:10222000FF1FA217B307E407F50720F0A21BB30BAB
:10223000E40BF50B661F771F881F991F1A9469F727
:1022400060957095809590959B01AC01BD01CF0183
:1022500008952F923F924F925F926F927F928F924A
:102260009F92AF92BF92CF92DF92EF92FF920F9325
:102270001F93CF93DF93CDB7DEB7CA1BDB0B0FB62F
:10228000F894DEBF0FBECDBF09942A8839884888EC
:102290005F846E847D848C849B84AA84B984C88482
:1022A000DF80EE80FD800C811B81AA81B981CE0F79
:1022B000D11D0FB6F894DEBF0FBECDBFED0108955E
:0422C000F894FFCFC0
:1022C40000000000000000000001020203030303F9
:1022D40004040404040404040505050505050505B2
:1022E4000505050505050505060606060606060692
:1022F400060606060606060606060606060606067A
:102304000606060606060606070707070707070761
:102314000707070707070707070707070707070749
:102324000707070707070707070707070707070739
:102334000707070707070707070707070707070729
:102344000707070707070707080808080808080811
:1023540008080808080808080808080808080808F9
:1023640008080808080808080808080808080808E9
:1023740008080808080808080808080808080808D9
:1023840008080808080808080808080808080808C9
:1023940008080808080808080808080808080808B9
:1023A40008080808080808080808080808080808A9
:1023B4000808080808080808080808080808080899
:1023C40008080808080808080001020303020100BD
:1023D4003738392F3435362A3132332D4B303D2BB3
:0223E4000100F6
:00000001FF
